:1000000000308A001928000025308400831300087E
:10001000031918280130F800F701F70B0D28F80B29
:100020000C284A30F700F70B13281628800B0A28F3
:10003000080003081F398300613083168F00900188
:100040000F0801308312A0000730A10083160317A8
:100050000908C039890003131F129F1200300317CB
:10006000880083128701880189018313FF3083167A
:10007000031385000030860083128601051C622868
:10008000851C622886140230A400FA30A5000420E2
:10009000A40B452886100230A400FA30A5000420E5
:1000A000A40B4D2886140230A400FA30A5000420C9
:1000B000A40B552886100230A400FA30A5000420B5
:1000C000A40B5D28051C6628061467280610851CED
:1000D0008A2886140230A400FA30A5000420A40B5C
:1000E0006C2886100230A400FA30A5000420A40B6E
:1000F000742886140230A400FA30A5000420A40B52
:100100007C2886100230A400FA30A5000420A40B3D
:100110008428AA2806140230A400FA30A50004207E
:10012000A40B8D2806100230A400FA30A50004208C
:10013000A40B952806140230A400FA30A500042070
:10014000A40B9D2806100230A400FA30A50004205C
:10015000A40BA52820080319B128013A0319C228C5
:10016000D62806140430A400FA30A5000420A40BFD
:10017000B42806100230A4009630A5000420A40B79
:10018000BC28E728553086000230A400FA30A500CC
:100190000420A40BC628AA3086000230A400FA303E
:1001A000A5000420A40BCF288601E728FF30860095
:1001B0000230A400FA30A5000420A40BDA2886013E
:1001C0000230A400FA30A5000420A40BE228051C8C
:1001D000FA2806140430A400FA30A5000420A40B69
:1001E000EC2806100230A4009630A5000420A40BD1
:1001F000F428E72805180D2986140230A40096304B
:10020000A5000420A40BFF2886100430A400FA30B7
:10021000A5000420A40B0729FA2806140230A40024
:100220009630A5000420A40B102906100430A40069
:10023000FA30A5000420A40B182985180D2986146E
:100240000430A400FA30A5000420A40B2229861053
:100250000230A4009630A5000420A40B2A29851C96
:100260001F29A2012208093C031C482986140230D8
:10027000A400FA30A5000420A40B3929861002300E
:10028000A400FA30A5000420A40B4129A20A3229B7
:10029000A30123082102031C62290130F70023086F
:1002A000F800031957290310F70DF80B53297708A5
:1002B00086040230A400FA30A5000420A40B5B29B8
:0802C000A30A49293E2863004E
:04400E00E42FFF3F5D
:00000001FF
;PIC16F887
;CRC=F119  CREATED="11-feb.-21 19:01"
